{
  "address": "0x5FbDB2315678afecb367f032d93F642f64180aa3",
  "abi": [
    {
      "inputs": [],
      "name": "complete",
      "outputs": [],
      "stateMutability": "payable",
      "type": "function"
    },
    {
      "inputs": [],
      "name": "completed",
      "outputs": [
        {
          "internalType": "bool",
          "name": "",
          "type": "bool"
        }
      ],
      "stateMutability": "view",
      "type": "function"
    }
  ],
  "transactionHash": "0x7f52ba0693a6edad206f2e44e5bb6ffd824e1dbbed1af5ab1eee68e24eda472a",
  "args": [],
  "numDeployments": 1,
  "solcInputHash": "b67af978621205542d85162fcac7750a",
  "bytecode": "0x608060405234801561001057600080fd5b5060ee8061001f6000396000f3fe60806040526004361060265760003560e01c8063522e117714602b5780639d9a7fe9146033575b600080fd5b60316059565b005b348015603e57600080fd5b5060456075565b60405160509190609f565b60405180910390f35b60016000806101000a81548160ff021916908315150217905550565b60008054906101000a900460ff1681565b60008115159050919050565b6099816086565b82525050565b600060208201905060b260008301846092565b9291505056fea26469706673582212201662de549ab63dfe924f9077d2829348a5f9cbbc868c4ededce56a2382d4d02f64736f6c63430008140033",
  "devdoc": {
    "kind": "dev",
    "methods": {},
    "version": 1
  },
  "userdoc": {
    "kind": "user",
    "methods": {},
    "version": 1
  },
  "storageLayout": {
    "storage": [
      {
        "astId": 1264,
        "contract": "contracts/ExampleExternalContract.sol:ExampleExternalContract",
        "label": "completed",
        "offset": 0,
        "slot": "0",
        "type": "t_bool"
      }
    ],
    "types": {
      "t_bool": {
        "encoding": "inplace",
        "label": "bool",
        "numberOfBytes": "1"
      }
    }
  }
}