{
  "address": "0xe7f1725E7734CE288F8367e1Bb143E90bb3F0512",
  "abi": [
    {
      "inputs": [
        {
          "internalType": "address",
          "name": "externalContractAddress",
          "type": "address"
        }
      ],
      "stateMutability": "nonpayable",
      "type": "constructor"
    },
    {
      "anonymous": false,
      "inputs": [
        {
          "indexed": true,
          "internalType": "address",
          "name": "sender",
          "type": "address"
        },
        {
          "indexed": false,
          "internalType": "uint256",
          "name": "amount",
          "type": "uint256"
        }
      ],
      "name": "Execute",
      "type": "event"
    },
    {
      "anonymous": false,
      "inputs": [
        {
          "indexed": false,
          "internalType": "address",
          "name": "",
          "type": "address"
        },
        {
          "indexed": false,
          "internalType": "uint256",
          "name": "",
          "type": "uint256"
        }
      ],
      "name": "Received",
      "type": "event"
    },
    {
      "anonymous": false,
      "inputs": [
        {
          "indexed": true,
          "internalType": "address",
          "name": "sender",
          "type": "address"
        },
        {
          "indexed": false,
          "internalType": "uint256",
          "name": "amount",
          "type": "uint256"
        }
      ],
      "name": "Stake",
      "type": "event"
    },
    {
      "inputs": [
        {
          "internalType": "address",
          "name": "",
          "type": "address"
        }
      ],
      "name": "balances",
      "outputs": [
        {
          "internalType": "uint256",
          "name": "",
          "type": "uint256"
        }
      ],
      "stateMutability": "view",
      "type": "function"
    },
    {
      "inputs": [],
      "name": "claimDeadline",
      "outputs": [
        {
          "internalType": "uint256",
          "name": "",
          "type": "uint256"
        }
      ],
      "stateMutability": "view",
      "type": "function"
    },
    {
      "inputs": [],
      "name": "claimPeriodLeft",
      "outputs": [
        {
          "internalType": "uint256",
          "name": "",
          "type": "uint256"
        }
      ],
      "stateMutability": "view",
      "type": "function"
    },
    {
      "inputs": [],
      "name": "currentBlock",
      "outputs": [
        {
          "internalType": "uint256",
          "name": "",
          "type": "uint256"
        }
      ],
      "stateMutability": "view",
      "type": "function"
    },
    {
      "inputs": [
        {
          "internalType": "address",
          "name": "",
          "type": "address"
        }
      ],
      "name": "depositTimestamps",
      "outputs": [
        {
          "internalType": "uint256",
          "name": "",
          "type": "uint256"
        }
      ],
      "stateMutability": "view",
      "type": "function"
    },
    {
      "inputs": [],
      "name": "exampleExternalContract",
      "outputs": [
        {
          "internalType": "contract ExampleExternalContract",
          "name": "",
          "type": "address"
        }
      ],
      "stateMutability": "view",
      "type": "function"
    },
    {
      "inputs": [],
      "name": "execute",
      "outputs": [],
      "stateMutability": "nonpayable",
      "type": "function"
    },
    {
      "inputs": [],
      "name": "killTime",
      "outputs": [],
      "stateMutability": "nonpayable",
      "type": "function"
    },
    {
      "inputs": [],
      "name": "rewardRatePerSecond",
      "outputs": [
        {
          "internalType": "uint256",
          "name": "",
          "type": "uint256"
        }
      ],
      "stateMutability": "view",
      "type": "function"
    },
    {
      "inputs": [],
      "name": "stake",
      "outputs": [],
      "stateMutability": "payable",
      "type": "function"
    },
    {
      "inputs": [],
      "name": "withdraw",
      "outputs": [],
      "stateMutability": "nonpayable",
      "type": "function"
    },
    {
      "inputs": [],
      "name": "withdrawalDeadline",
      "outputs": [
        {
          "internalType": "uint256",
          "name": "",
          "type": "uint256"
        }
      ],
      "stateMutability": "view",
      "type": "function"
    },
    {
      "inputs": [],
      "name": "withdrawalTimeLeft",
      "outputs": [
        {
          "internalType": "uint256",
          "name": "",
          "type": "uint256"
        }
      ],
      "stateMutability": "view",
      "type": "function"
    },
    {
      "stateMutability": "payable",
      "type": "receive"
    }
  ],
  "transactionHash": "0xc8c0f8b7586fa1e6ef26e0ff8f2f2f45e4895276b8a377bb293948548c43b459",
  "args": [
    "0x5FbDB2315678afecb367f032d93F642f64180aa3"
  ],
  "numDeployments": 1,
  "solcInputHash": "f180b280e4e922886054d7e5568fdf6b",
  "bytecode": "0x608060405261096042620000149190620000e2565b6003556112c042620000279190620000e2565b60045560006005553480156200003c57600080fd5b50604051620014dd380380620014dd833981810160405281019062000062919062000187565b806000806101000a81548173ffffffffffffffffffffffffffffffffffffffff021916908373ffffffffffffffffffffffffffffffffffffffff16021790555050620001b9565b6000819050919050565b7f4e487b7100000000000000000000000000000000000000000000000000000000600052601160045260246000fd5b6000620000ef82620000a9565b9150620000fc83620000a9565b9250828201905080821115620001175762000116620000b3565b5b92915050565b600080fd5b600073ffffffffffffffffffffffffffffffffffffffff82169050919050565b60006200014f8262000122565b9050919050565b620001618162000142565b81146200016d57600080fd5b50565b600081519050620001818162000156565b92915050565b600060208284031215620001a0576200019f6200011d565b5b6000620001b08482850162000170565b91505092915050565b61131480620001c96000396000f3fe6080604052600436106100c65760003560e01c80635d773b2c1161007f578063bcb8e81311610059578063bcb8e81314610269578063be31069714610280578063e12ed13c146102ab578063f7894176146102d657610106565b80635d773b2c146101fc57806361461954146102275780639f75f2271461023e57610106565b8063240be9441461010b57806324a5a2ce1461014857806327e235e3146101735780633a4b66f1146101b05780633ba86c44146101ba5780633ccfd60b146101e557610106565b36610106577f88a5966d370b9919b20f3e2c13ff65706f196a4e32cc2c12bf57088f8852587433346040516100fc929190610cc7565b60405180910390a1005b600080fd5b34801561011757600080fd5b50610132600480360381019061012d9190610d21565b610301565b60405161013f9190610d4e565b60405180910390f35b34801561015457600080fd5b5061015d610319565b60405161016a9190610d4e565b60405180910390f35b34801561017f57600080fd5b5061019a60048036038101906101959190610d21565b610341565b6040516101a79190610d4e565b60405180910390f35b6101b8610359565b005b3480156101c657600080fd5b506101cf6105bd565b6040516101dc9190610d4e565b60405180910390f35b3480156101f157600080fd5b506101fa6105c3565b005b34801561020857600080fd5b50610211610a05565b60405161021e9190610d4e565b60405180910390f35b34801561023357600080fd5b5061023c610a11565b005b34801561024a57600080fd5b50610253610c0c565b6040516102609190610dc8565b60405180910390f35b34801561027557600080fd5b5061027e610c30565b005b34801561028c57600080fd5b50610295610c39565b6040516102a29190610d4e565b60405180910390f35b3480156102b757600080fd5b506102c0610c3f565b6040516102cd9190610d4e565b60405180910390f35b3480156102e257600080fd5b506102eb610c45565b6040516102f89190610d4e565b60405180910390f35b60026020528060005260406000206000915090505481565b6000600454421061032d576000905061033e565b4260045461033b9190610e12565b90505b90565b60016020528060005260406000206000915090505481565b600080610364610c45565b905081156103b457600081146103af576040517f08c379a00000000000000000000000000000000000000000000000000000000081526004016103a690610ec9565b60405180910390fd5b6103f8565b600081116103f7576040517f08c379a00000000000000000000000000000000000000000000000000000000081526004016103ee90610f5b565b60405180910390fd5b5b600080610403610319565b90508115610453576000811461044e576040517f08c379a000000000000000000000000000000000000000000000000000000000815260040161044590610fed565b60405180910390fd5b610497565b60008111610496576040517f08c379a000000000000000000000000000000000000000000000000000000000815260040161048d90611059565b60405180910390fd5b5b34600160003373ffffffffffffffffffffffffffffffffffffffff1673ffffffffffffffffffffffffffffffffffffffff168152602001908152602001600020546104e29190611079565b600160003373ffffffffffffffffffffffffffffffffffffffff1673ffffffffffffffffffffffffffffffffffffffff1681526020019081526020016000208190555042600260003373ffffffffffffffffffffffffffffffffffffffff1673ffffffffffffffffffffffffffffffffffffffff168152602001908152602001600020819055503373ffffffffffffffffffffffffffffffffffffffff167febedb8b3c678666e7f36970bc8f57abf6d8fa2e828c0da91ea5b75bf68ed101a346040516105af9190610d4e565b60405180910390a250505050565b60045481565b600160006105cf610c45565b9050811561061f576000811461061a576040517f08c379a000000000000000000000000000000000000000000000000000000000815260040161061190610ec9565b60405180910390fd5b610663565b60008111610662576040517f08c379a000000000000000000000000000000000000000000000000000000000815260040161065990610f5b565b60405180910390fd5b5b60008061066e610319565b905081156106be57600081146106b9576040517f08c379a00000000000000000000000000000000000000000000000000000000081526004016106b090610fed565b60405180910390fd5b610702565b60008111610701576040517f08c379a00000000000000000000000000000000000000000000000000000000081526004016106f890611059565b60405180910390fd5b5b60008060009054906101000a900473ffffffffffffffffffffffffffffffffffffffff1673ffffffffffffffffffffffffffffffffffffffff16639d9a7fe96040518163ffffffff1660e01b8152600401602060405180830381865afa158015610770573d6000803e3d6000fd5b505050506040513d601f19601f8201168201806040525081019061079491906110e5565b905080156107d7576040517f08c379a00000000000000000000000000000000000000000000000000000000081526004016107ce9061115e565b60405180910390fd5b6000600160003373ffffffffffffffffffffffffffffffffffffffff1673ffffffffffffffffffffffffffffffffffffffff1681526020019081526020016000205411610859576040517f08c379a0000000000000000000000000000000000000000000000000000000008152600401610850906111ca565b60405180910390fd5b6000600160003373ffffffffffffffffffffffffffffffffffffffff1673ffffffffffffffffffffffffffffffffffffffff168152602001908152602001600020549050600067016345785d8a0000600260003373ffffffffffffffffffffffffffffffffffffffff1673ffffffffffffffffffffffffffffffffffffffff16815260200190815260200160002054426108f39190610e12565b6108fd91906111ea565b826109089190611079565b90506000600160003373ffffffffffffffffffffffffffffffffffffffff1673ffffffffffffffffffffffffffffffffffffffff1681526020019081526020016000208190555060003373ffffffffffffffffffffffffffffffffffffffff16826040516109759061125d565b60006040518083038185875af1925050503d80600081146109b2576040519150601f19603f3d011682016040523d82523d6000602084013e6109b7565b606091505b50509050806109fb576040517f08c379a00000000000000000000000000000000000000000000000000000000081526004016109f2906112be565b60405180910390fd5b5050505050505050565b67016345785d8a000081565b60016000610a1d610319565b90508115610a6d5760008114610a68576040517f08c379a0000000000000000000000000000000000000000000000000000000008152600401610a5f90610fed565b60405180910390fd5b610ab1565b60008111610ab0576040517f08c379a0000000000000000000000000000000000000000000000000000000008152600401610aa790611059565b60405180910390fd5b5b60008060009054906101000a900473ffffffffffffffffffffffffffffffffffffffff1673ffffffffffffffffffffffffffffffffffffffff16639d9a7fe96040518163ffffffff1660e01b8152600401602060405180830381865afa158015610b1f573d6000803e3d6000fd5b505050506040513d601f19601f82011682018060405250810190610b4391906110e5565b90508015610b86576040517f08c379a0000000000000000000000000000000000000000000000000000000008152600401610b7d9061115e565b60405180910390fd5b60008054906101000a900473ffffffffffffffffffffffffffffffffffffffff1673ffffffffffffffffffffffffffffffffffffffff1663522e1177476040518263ffffffff1660e01b81526004016000604051808303818588803b158015610bee57600080fd5b505af1158015610c02573d6000803e3d6000fd5b5050505050505050565b60008054906101000a900473ffffffffffffffffffffffffffffffffffffffff1681565b42600581905550565b60035481565b60055481565b60006003544210610c595760009050610c6a565b42600354610c679190610e12565b90505b90565b600073ffffffffffffffffffffffffffffffffffffffff82169050919050565b6000610c9882610c6d565b9050919050565b610ca881610c8d565b82525050565b6000819050919050565b610cc181610cae565b82525050565b6000604082019050610cdc6000830185610c9f565b610ce96020830184610cb8565b9392505050565b600080fd5b610cfe81610c8d565b8114610d0957600080fd5b50565b600081359050610d1b81610cf5565b92915050565b600060208284031215610d3757610d36610cf0565b5b6000610d4584828501610d0c565b91505092915050565b6000602082019050610d636000830184610cb8565b92915050565b6000819050919050565b6000610d8e610d89610d8484610c6d565b610d69565b610c6d565b9050919050565b6000610da082610d73565b9050919050565b6000610db282610d95565b9050919050565b610dc281610da7565b82525050565b6000602082019050610ddd6000830184610db9565b92915050565b7f4e487b7100000000000000000000000000000000000000000000000000000000600052601160045260246000fd5b6000610e1d82610cae565b9150610e2883610cae565b9250828203905081811115610e4057610e3f610de3565b5b92915050565b600082825260208201905092915050565b7f5769746864726177616c20706572696f64206973206e6f74207265616368656460008201527f2079657400000000000000000000000000000000000000000000000000000000602082015250565b6000610eb3602483610e46565b9150610ebe82610e57565b604082019050919050565b60006020820190508181036000830152610ee281610ea6565b9050919050565b7f5769746864726177616c20706572696f6420686173206265656e20726561636860008201527f6564000000000000000000000000000000000000000000000000000000000000602082015250565b6000610f45602283610e46565b9150610f5082610ee9565b604082019050919050565b60006020820190508181036000830152610f7481610f38565b9050919050565b7f436c61696d20646561646c696e65206973206e6f74207265616368656420796560008201527f7400000000000000000000000000000000000000000000000000000000000000602082015250565b6000610fd7602183610e46565b9150610fe282610f7b565b604082019050919050565b6000602082019050818103600083015261100681610fca565b9050919050565b7f436c61696d20646561646c696e6520686173206265656e207265616368656400600082015250565b6000611043601f83610e46565b915061104e8261100d565b602082019050919050565b6000602082019050818103600083015261107281611036565b9050919050565b600061108482610cae565b915061108f83610cae565b92508282019050808211156110a7576110a6610de3565b5b92915050565b60008115159050919050565b6110c2816110ad565b81146110cd57600080fd5b50565b6000815190506110df816110b9565b92915050565b6000602082840312156110fb576110fa610cf0565b5b6000611109848285016110d0565b91505092915050565b7f5374616b6520616c726561647920636f6d706c65746564210000000000000000600082015250565b6000611148601883610e46565b915061115382611112565b602082019050919050565b600060208201905081810360008301526111778161113b565b9050919050565b7f596f752068617665206e6f2062616c616e636520746f20776974686472617721600082015250565b60006111b4602083610e46565b91506111bf8261117e565b602082019050919050565b600060208201905081810360008301526111e3816111a7565b9050919050565b60006111f582610cae565b915061120083610cae565b925082820261120e81610cae565b9150828204841483151761122557611224610de3565b5b5092915050565b600081905092915050565b50565b600061124760008361122c565b915061125282611237565b600082019050919050565b60006112688261123a565b9150819050919050565b7f5249503b207769746864726177616c206661696c6564203a2820000000000000600082015250565b60006112a8601a83610e46565b91506112b382611272565b602082019050919050565b600060208201905081810360008301526112d78161129b565b905091905056fea26469706673582212204a1ca37182c9b92170cedf97eb50e632e4a90605a85f7d41113994e4e45d315a64736f6c63430008140033",
  "devdoc": {
    "kind": "dev",
    "methods": {},
    "version": 1
  },
  "userdoc": {
    "kind": "user",
    "methods": {},
    "version": 1
  },
  "storageLayout": {
    "storage": [
      {
        "astId": 19,
        "contract": "contracts/Staker.sol:Staker",
        "label": "exampleExternalContract",
        "offset": 0,
        "slot": "0",
        "type": "t_contract(ExampleExternalContract)12"
      },
      {
        "astId": 23,
        "contract": "contracts/Staker.sol:Staker",
        "label": "balances",
        "offset": 0,
        "slot": "1",
        "type": "t_mapping(t_address,t_uint256)"
      },
      {
        "astId": 27,
        "contract": "contracts/Staker.sol:Staker",
        "label": "depositTimestamps",
        "offset": 0,
        "slot": "2",
        "type": "t_mapping(t_address,t_uint256)"
      },
      {
        "astId": 36,
        "contract": "contracts/Staker.sol:Staker",
        "label": "withdrawalDeadline",
        "offset": 0,
        "slot": "3",
        "type": "t_uint256"
      },
      {
        "astId": 42,
        "contract": "contracts/Staker.sol:Staker",
        "label": "claimDeadline",
        "offset": 0,
        "slot": "4",
        "type": "t_uint256"
      },
      {
        "astId": 45,
        "contract": "contracts/Staker.sol:Staker",
        "label": "currentBlock",
        "offset": 0,
        "slot": "5",
        "type": "t_uint256"
      }
    ],
    "types": {
      "t_address": {
        "encoding": "inplace",
        "label": "address",
        "numberOfBytes": "20"
      },
      "t_contract(ExampleExternalContract)12": {
        "encoding": "inplace",
        "label": "contract ExampleExternalContract",
        "numberOfBytes": "20"
      },
      "t_mapping(t_address,t_uint256)": {
        "encoding": "mapping",
        "key": "t_address",
        "label": "mapping(address => uint256)",
        "numberOfBytes": "32",
        "value": "t_uint256"
      },
      "t_uint256": {
        "encoding": "inplace",
        "label": "uint256",
        "numberOfBytes": "32"
      }
    }
  }
}